S01800004D6F746F7220436F6E74726F6C6C65722E73726563B7
S11300000C942A000C943C000C943C000C943C008E
S11300100C943C000C943C000C943C000C943C006C
S11300200C943C000C943C000C943C000C943C005C
S11300300C943C000C943C000C943C000C943C004C
S11300400C943C000C943C000C943C000C943C003C
S11300500C943C0011241FBECFE5D8E0DEBFCDBF19
S113006020E0A0E6B0E001C01D92A236B207E1F79D
S11300700E943E000C9410010C94000060E875E2AC
S113008080E090E00E94B6000E948200B59B0CC004
S113009081E090E0909361008093600082E00E9490
S11300A0E400C0E0D0E02AC0109261001092600029
S11300B083E00E94E400F5CF81E00E94E40081E047
S11300C090E00E9486002FEF33ED80E32150304012
S11300D08040E1F700C0000080E090E00E948600CC
S11300E084E00E94E4009AEA26EE36E981E0915029
S11300F0204030408040D9F700002196C330D1051C
S1130100DCF2C4CF8FEF8ABB84BB08950197B9F4A6
S113011080E385BB2FEF81EE94E021508040904036
S1130120E1F700C0000080E685BB2FEF81EE94E08C
S1130130215080409040E1F700C00000089580E61F
S113014085BB2FEF81EE94E0215080409040E1F791
S113015000C0000080E385BB2FEF81EE94E02150C6
S113016080409040E1F700C00000089521B3226070
S113017021BBDC01CB01880F991FAA1FBB1F880F6D
S1130180991FAA1FBB1F9C01AD01220F331F441FDF
S1130190551F220F331F441F551F60E074E284EF84
S11301A090E00E94EE00DA01C9010197A109B109AA
S11301B0892F9A2FAB2FBB2780BD215029B988E105
S11301C08AB98EE080BD08955D9BFECF8CB98FE126
S11301D09EE40197F1F700C000000895A1E21A2EF1
S11301E0AA1BBB1BFD010DC0AA1FBB1FEE1FFF1FD7
S11301F0A217B307E407F50720F0A21BB30BE40B27
S1130200F50B661F771F881F991F1A9469F760956D
S11302107095809590959B01AC01BD01CF01089527
S1070220F894FFCF7C
S9030000FC
