:100000000C942A000C9434000C9434000C943400AA
:100010000C9434000C9434000C9434000C94340090
:100020000C9434000C9434000C9434000C94340080
:100030000C9434000C9434000C9434000C94340070
:100040000C9434000C9434000C9434000C94340060
:100050000C94340011241FBECFE5D8E0DEBFCDBF25
:100060000E9436000C944A000C94000015BA81E0FE
:100070008ABBB59B03C081E090E002C080E090E0C5
:10008000892B21F08BB381608BBBF3CF8BB38E7F39
:080090008BBBEFCFF894FFCF0A
:00000001FF
