:100000000C942A000C9434000C9434000C943400AA
:100010000C9434000C9434000C9434000C94340090
:100020000C9434000C9434000C9434000C94340080
:100030000C9434000C9434000C9434000C94340070
:100040000C9434000C9434000C9434000C94340060
:100050000C94340011241FBECFE5D8E0DEBFCDBF25
:100060000E9448000C9486000C94000087B38E60B8
:1000700087BB89E683BF8FEF8CBF08958CBF08953F
:1000800088B3826088BB089588B38D7F88BB08954C
:100090000E9436002FEF87EA91E621508040904081
:1000A000E1F700C000000E9440002FEF87EA91E6D0
:1000B000215080409040E1F700C000000E944400C1
:1000C0002FEF87EA91E6215080409040E1F700C091
:1000D00000008AE090E00E943E000E9440002FEF66
:1000E00087EA91E6215080409040E1F700C000008F
:1000F0000E9444002FEF87EA91E621508040904013
:10010000E1F700C0000080E090E00895F894FFCF90
:00000001FF
