:100000000C942A000C9434000C9434000C943400AA
:100010000C9434000C9434000C9434000C94340090
:100020000C9434000C9434000C9434000C94340080
:100030000C9434000C9434000C9434000C94340070
:100040000C9434000C9434000C9434000C94340060
:100050000C94340011241FBECFE5D8E0DEBFCDBF25
:100060000E946A000C9480000C9400008FEF8ABB01
:1000700084BB08950197B9F480E385BB2FEF80E737
:1000800092E0215080409040E1F700C0000080E6FF
:1000900085BB2FEF80E792E0215080409040E1F750
:1000A00000C00000089580E685BB2FEF80E792E056
:1000B000215080409040E1F700C0000080E385BB04
:1000C0002FEF80E792E0215080409040E1F700C0A0
:1000D000000008950E94360081E090E00E943A00FE
:1000E0002FEF83ED90E3215080409040E1F700C076
:1000F000000080E090E00E943A0080E090E00895E7
:04010000F894FFCFA1
:00000001FF
