:100000000C942A000C94B1060C94EB060C9429076E
:100010000C9447000C94A6070C9447000C944700DE
:100020000C9447000C948F070C9447000C947807AD
:100030000C9447000C94DE070C9447000C94470086
:100040000C9447000C9447000C9447000C94470014
:100050000C94470011241FBECFE5D8E0DEBFCDBF12
:1000600010E0A0E6B0E0E8E3F4E102C005900D92F4
:10007000A036B107D9F720E0A0E6B0E001C01D929C
:10008000AC37B207E1F70E94F8070C941A0A0C94F7
:100090000000892B39F088B38E7F88BB88B38260DB
:1000A00088BB089588B3816088BB88B38D7F88BB87
:1000B000089588B38E7F88BB88B38D7F88BB0895F1
:1000C0008FEF8ABB84BB0895181619060CF068C11F
:1000D000161617060CF064C19C01261B370BA901EC
:1000E00022F444275527421B530B68177907CCF19C
:1000F00087C023E32BBB3FEFA1EEB4E03150A0401B
:10010000B040E1F700C0000036E63BBBEFEFF1EE98
:1001100034E0E150F0403040E1F700C000003CEC3A
:100120003BBBAFEFB1EEE4E0A150B040E040E1F7FF
:1001300000C0000039E93BBBFFEF31EEA4E0F15015
:100140003040A040E1F700C000002BBBBFEFE1EE64
:10015000F4E0B150E040F040E1F700C0000001964B
:1001600002C080E090E0861797071CF28FE39CE9BD
:100170000197F1F700C0000080E090E037C023E075
:100180002BBBAFEFB1EEE4E0A150B040E040E1F7AF
:1001900000C0000036E03BBBFFEF31EE64E0F15001
:1001A00030406040E1F700C000003CE03BBB7FEF27
:1001B000A1EEB4E07150A040B040E1F700C00000F3
:1001C00039E03BBBEFEFF1EE34E0E150F04030407E
:1001D000E1F700C000002BBB6FEF71EEA4E06150AF
:1001E0007040A040E1F700C0000001968417950719
:1001F00034F2EFE3FCE93197F1F700C00000089515
:1002000086179707E4F120E030E0C0C063E36BBBE2
:10021000FFEF71EEA4E0F1507040A040E1F700C0A4
:10022000000076E67BBBBFEFE1EEF4E0B150E040CA
:10023000F040E1F700C000007CEC7BBB7FEFA1EE5B
:10024000B4E07150A040B040E1F700C0000079E98F
:100250007BBBEFEFF1EE74E0E150F0407040E1F76E
:1002600000C000006BBBAFEFB1EEE4E0A150B040C6
:10027000E040E1F700C000002F5F3F4F02C020E0E8
:1002800030E02817390714F28FE39CE90197F1F762
:1002900000C0000080E090E037C020E32BBBAFEF50
:1002A000B1EEE4E0A150B040E040E1F700C0000052
:1002B00030E63BBBFFEF31EE64E0F1503040604090
:1002C000E1F700C0000030EC3BBB7FEFA1EEB4E0F3
:1002D0007150A040B040E1F700C0000030E93BBBE6
:1002E000EFEFF1EE34E0E150F0403040E1F700C0D4
:1002F00000002BBB6FEF71EEA4E061507040A04096
:10030000E1F700C0000001968417950734F2EFE38F
:10031000FCE93197F1F700C00000089543E34BBBBF
:10032000FFEF51EE64E0F15050406040E1F700C053
:10033000000056E65BBB7FEFA1EEB4E07150A04039
:10034000B040E1F700C000005CEC5BBBEFEFF1EE0A
:1003500054E0E150F0405040E1F700C0000059E99E
:100360005BBB6FEF71EEA4E061507040A040E1F71D
:1003700000C000004BBBBFEFE1EEF4E0B150E04045
:10038000F040E1F700C000002F5F3F4F281739070A
:100390002CF28FE39CE90197F1F700C0000008956B
:1003A00099230CF075C177230CF072C19C01261BB8
:1003B000370BA90122F444275527421B530BFC019C
:1003C000992324F4EE27FF27E81BF90B9B017723E1
:1003D00024F422273327261B370BB9012E173F079A
:1003E000CCF187C023E32BBBAFEFB1EEE4E0A1502B
:1003F000B040E040E1F700C0000039E93BBBFFEF4F
:1004000031EEA4E0F1503040A040E1F700C0000020
:100410003CEC3BBBBFEFE1EEF4E0B150E040F0401C
:10042000E1F700C0000036E63BBB3FEFA1EEB4E0D1
:100430003150A040B040E1F700C000002BBBEFEF0F
:10044000F1EE24E0E150F0402040E1F700C0000070
:10045000019602C080E090E0861797071CF28FE3B8
:100460009CE90197F1F700C0000080E090E037C000
:1004700023E02BBBAFEFB1EEE4E0A150B040E04091
:10048000E1F700C0000039E03BBBFFEF31EE64E074
:10049000F15030406040E1F700C000003CE03BBB61
:1004A0007FEFA1EEB4E07150A040B040E1F700C092
:1004B000000036E03BBBEFEFF1EE34E0E150F040FE
:1004C0003040E1F700C000002BBB6FEF71EEA4E0FD
:1004D00061507040A040E1F700C000000196841711
:1004E000950734F2EFE3FCE93197F1F700C0000023
:1004F0000895E217F307DCF120E030E0BFC023E30A
:100500002BBB3FEF61EE74E0315060407040E1F78B
:1005100000C0000039E93BBBAFEFB1EE34E0A150C1
:10052000B0403040E1F700C000003CEC3BBB6FEF57
:1005300071EEA4E061507040A040E1F700C00000FF
:1005400036E63BBBBFEF31EE64E0B1503040604077
:10055000E1F700C000002BBB7FEFA1EEB4E07150CB
:10056000A040B040E1F700C00000019602C080E06A
:1005700090E08E179F071CF2EFE3FCE93197F1F74B
:1005800000C0000080E090E037C020E32BBBFFEF0D
:1005900031EE64E0F15030406040E1F700C000000F
:1005A00030E93BBB7FEFA1EEB4E07150A040B0401A
:1005B000E1F700C0000030EC3BBBEFEFF1EE34E0C0
:1005C000E150F0403040E1F700C0000030E63BBBB6
:1005D0006FEF71EEA4E061507040A040E1F700C001
:1005E00000002BBBBFEFE1EEF4E0B150E040F04083
:1005F000E1F700C0000001968417950734F28FE3FD
:100600009CE90197F1F700C00000089543E34BBB5C
:10061000AFEFB1EEE4E0A150B040E040E1F700C040
:10062000000059E95BBBFFEF51EE64E0F150504030
:100630006040E1F700C000005CEC5BBB7FEFA1EE27
:10064000B4E07150A040B040E1F700C0000056E6B1
:100650005BBBEFEFF1EE54E0E150F0405040E1F7CA
:1006600000C000004BBB6FEF71EEA4E06150704022
:10067000A040E1F700C000002F5F3F4F2817390767
:100680002CF2EFE3FCE93197F1F700C00000089588
:10069000181619060CF070C177230CF06DC19C017F
:1006A000992324F422273327281B390BAB01772306
:1006B00024F444275527461B570BBA01D901A41B24
:1006C000B50BAD0162177307CCF187C023E32BBBD9
:1006D000BFEFE1EEF4E0B150E040F040E1F700C0E0
:1006E000000036E93BBB3FEFA1EEB4E03150A04043
:1006F000B040E1F700C000003CEC3BBBEFEFF1EE97
:1007000034E0E150F0403040E1F700C0000039E64D
:100710003BBBAFEFB1EEE4E0A150B040E040E1F709
:1007200000C000002BBBFFEF21EE34E0F150204071
:100730003040E1F700C00000019602C080E090E088
:10074000861797071CF28FE39CE90197F1F700C029
:10075000000080E090E037C023E02BBBAFEFB1EEAC
:10076000E4E0A150B040E040E1F700C0000036E016
:100770003BBBFFEF31EE64E0F15030406040E1F709
:1007800000C000003CE03BBB7FEFA1EEB4E0715045
:10079000A040B040E1F700C0000039E03BBBEFEF04
:1007A000F1EE34E0E150F0403040E1F700C00000ED
:1007B0002BBB6FEF71EEA4E061507040A040E1F7F9
:1007C00000C0000001968417950734F2EFE3FCE9BE
:1007D0003197F1F700C00000089526173707DCF1C4
:1007E00020E030E0BFC063E36BBBFFEF71EEA4E03D
:1007F000F1507040A040E1F700C0000076E97BBBFB
:10080000BFEFE1EEF4E0B150E040F040E1F700C0AE
:1008100000007CEC7BBB7FEFA1EEB4E07150A04008
:10082000B040E1F700C0000079E67BBBEFEFF1EEEE
:1008300074E0E150F0407040E1F700C000006BBB95
:10084000AFEFB1EEE4E0A150B040E040E1F700C00E
:100850000000019602C080E090E0821793071CF22E
:100860008FE39CE90197F1F700C0000080E090E081
:1008700037C020E32BBBAFEFB1EEE4E0A150B040B6
:10088000E040E1F700C0000030E93BBBFFEF31EE94
:1008900064E0F15030406040E1F700C0000030EC0F
:1008A0003BBB7FEFA1EEB4E07150A040B040E1F758
:1008B00000C0000030E63BBBEFEFF1EE34E0E1506A
:1008C000F0403040E1F700C000002BBB6FEF71EE4D
:1008D000A4E061507040A040E1F700C00000019624
:1008E0008417950734F2EFE3FCE93197F1F700C084
:1008F0000000089543E34BBBFFEF51EE64E0F1507D
:1009000050406040E1F700C0000056E95BBB7FEF5C
:10091000A1EEB4E07150A040B040E1F700C000008B
:100920005CEC5BBBEFEFF1EE54E0E150F040504087
:10093000E1F700C0000059E65BBB6FEF71EEA4E089
:1009400061507040A040E1F700C000004BBBBFEF1A
:10095000E1EEF4E0B150E040F040E1F700C000000B
:100960002F5F3F4F281739072CF28FE39CE901973F
:10097000F1F700C0000008959C01992324F4222778
:100980003327281B390BAB01772324F44427552741
:10099000461B570BFA01D901A41BB50BAD01E21799
:1009A000F307CCF187C023E32BBBBFEFE1EEF4E00C
:1009B000B150E040F040E1F700C0000039E63BBB39
:1009C0003FEFA1EEB4E03150A040B040E1F700C0ED
:1009D00000003CEC3BBBEFEFF1EE34E0E150F040C7
:1009E0003040E1F700C0000036E93BBBAFEFB1EEAD
:1009F000E4E0A150B040E040E1F700C000002BBBB4
:100A0000FFEF21EE34E0F15020403040E1F700C02C
:100A10000000019602C080E090E0861797071CF264
:100A20008FE39CE90197F1F700C0000080E090E0BF
:100A300037C023E02BBBAFEFB1EEE4E0A150B040F4
:100A4000E040E1F700C0000039E03BBBFFEF31EED2
:100A500064E0F15030406040E1F700C000003CE04D
:100A60003BBB7FEFA1EEB4E07150A040B040E1F796
:100A700000C0000036E03BBBEFEFF1EE34E0E150A8
:100A8000F0403040E1F700C000002BBB6FEF71EE8B
:100A9000A4E061507040A040E1F700C00000019662
:100AA0008417950734F2EFE3FCE93197F1F700C0C2
:100AB000000008952E173F07DCF120E030E0BFC0B2
:100AC00063E36BBBFFEF71EEA4E0F1507040A04018
:100AD000E1F700C0000079E67BBBBFEFE1EEF4E098
:100AE000B150E040F040E1F700C000007CEC7BBB7F
:100AF0007FEFA1EEB4E07150A040B040E1F700C03C
:100B0000000076E97BBBEFEFF1EE74E0E150F040DE
:100B10007040E1F700C000006BBBAFEFB1EEE4E066
:100B2000A150B040E040E1F700C00000019602C0D3
:100B300080E090E0821793071CF28FE39CE9019715
:100B4000F1F700C0000080E090E037C020E32BBB4D
:100B5000AFEFB1EEE4E0A150B040E040E1F700C0FB
:100B6000000030E63BBBFFEF31EE64E0F150304077
:100B70006040E1F700C0000030EC3BBB7FEFA1EE2E
:100B8000B4E07150A040B040E1F700C0000030E98F
:100B90003BBBEFEFF1EE34E0E150F0403040E1F7E5
:100BA00000C000002BBB6FEF71EEA4E061507040FD
:100BB000A040E1F700C0000001968417950734F2C9
:100BC000EFE3FCE93197F1F700C00000089543E33B
:100BD0004BBBFFEF51EE64E0F15050406040E1F755
:100BE00000C0000059E65BBB7FEFA1EEB4E071509E
:100BF000A040B040E1F700C000005CEC5BBBEFEF51
:100C0000F1EE54E0E150F0405040E1F700C0000048
:100C100056E95BBB6FEF71EEA4E061507040A040FD
:100C2000E1F700C000004BBBBFEFE1EEF4E0B150D4
:100C3000E040F040E1F700C000002F5F3F4F281771
:100C400039072CF28FE39CE90197F1F700C000000F
:100C5000089581B3826081BB10BC89E189B988E9BC
:100C60008AB98EE080BD08955D9BFECF8CB98FE17F
:100C70009EE40197F1F700C00000089581B38068F9
:100C800081BB8BB780648BBF85B7816085BF89B717
:100C9000816089BF13BE87B3806487BB8BB78068D0
:100CA0008BBF85B7846085BF89B7846089BF1FBC4F
:100CB00087B3806887BB8BB780628BBF84B7806443
:100CC00084BF89B7806489BF15BC089588B38064E8
:100CD00088BB80EA8A95F1F788B38F7B88BB8091C7
:100CE0006A0090916B00892BD1F380916A009091FA
:100CF0006B0010926B0010926A0060EA73E00E9431
:100D0000F209CB010196089588B3806888BB80EA18
:100D10008A95F1F788B38F7788BB809168009091AE
:100D20006900892BD1F3609168007091690010927D
:100D3000690010926800072E000C880B990B0E9426
:100D4000660923E333E349E654E40E94BC0820E04B
:100D500030E040E85FE30E9450080E942E09CB017A
:100D600008951F920F920FB60F9211242F938F9315
:100D70009F938091700090917100019789F413BE48
:100D800022B78091660090916700820F911D909329
:100D90006D0080936C0012BE109271001092700072
:100DA0008091700090917100892B49F483B7816024
:100DB00083BF81E090E09093710080937000109267
:100DC0006700109266009F918F912F910F900FBE38
:100DD0000F901F9018951F920F920FB60F9211242B
:100DE0002F933F938F939F9380916E0090916F000C
:100DF000019799F41EBC2CB53DB58091600090918F
:100E00006100820F931F90936B0080936A001DBC5A
:100E10001CBC10926F0010926E0080916E00909139
:100E20006F00892B49F48EB581608EBD81E090E022
:100E300090936F0080936E0010926100109260009A
:100E40009F918F913F912F910F900FBE0F901F9008
:100E500018951F920F920FB60F9211242F933F9364
:100E60004F935F936F937F938F939F93AF93BF93B2
:100E7000EF93FF9304B606FE07C085B5816085BD7C
:100E800084B78F7B84BF1BC015BC64B570E080E065
:100E900090E00E94660920916200309163004091C9
:100EA0006400509165000E9450080E942E097093C2
:100EB00069006093680014BC84B7806484BF10929A
:100EC0006200109263001092640010926500FF911E
:100ED000EF91BF91AF919F918F917F916F915F91B2
:100EE0004F913F912F910F900FBE0F901F9018952B
:100EF0001F920F920FB60F9211248F939F938091A0
:100F000066009091670093959093670080936600C8
:100F10009F918F910F900FBE0F901F9018951F9269
:100F20000F920FB60F9211248F939F9380916000C0
:100F300090916100019790936100809360009F9170
:100F40008F910F900FBE0F901F9018951F920F92C8
:100F50000FB60F9211242F933F934F935F936F938C
:100F60007F938F939F93AF93BF93EF93FF9320E073
:100F700030E040E853E4609162007091630080913A
:100F80006400909165000E94500860936200709325
:100F900063008093640090936500FF91EF91BF918F
:100FA000AF919F918F917F916F915F914F913F9101
:100FB0002F910F900FBE0F901F9018951F920F92B8
:100FC0000FB60F9211248F939F938CB190E0909362
:100FD0007B0080937A0081E090E09093750080938D
:100FE00074009F918F910F900FBE0F901F901895D6
:100FF0000E943E060E9429060E9460007894849B0D
:10100000FECFB59B04C082E00E94340603C083E09B
:101010000E9434060E9466069093790080937800BF
:101020000E9484069093770080937600609176000A
:1010300070917700809178009091790063507109E8
:1010400003970E946400859B0BC0869B09C081E0CA
:1010500090E00E9449008699FECF0E9459000CC082
:1010600085990AC0869908C080E090E00E944900F6
:10107000859BFECF0E94590080917400909175006D
:10108000892BD1F380917A0090917B00909373002B
:10109000809372001092750010927400FFCF505828
:1010A000BB27AA270E9467080C94B8090E94AA09C6
:1010B00038F00E94B10920F039F49F3F19F426F46A
:1010C0000C94A7090EF4E095E7FB0C94A109E92F15
:1010D0000E94C90958F3BA17620773078407950776
:1010E00020F079F4A6F50C94EB090EF4E0950B2EA4
:1010F000BA2FA02D0B01B90190010C01CA01A0016A
:101100001124FF27591B99F0593F50F4503E68F1C4
:101110001A16F040A22F232F342F4427585FF3CF05
:10112000469537952795A795F0405395C9F77EF4D6
:101130001F16BA0B620B730B840BBAF09150A1F01F
:10114000FF0FBB1F661F771F881FC2F70EC0BA0FA5
:10115000621F731F841F48F4879577956795B7952D
:10116000F7959E3F08F0B0CF9395880F08F0992728
:10117000EE0F9795879508950E94D0080C94B809B2
:101180000E94B10958F00E94AA0940F029F45F3F7B
:1011900029F00C94A10951110C94EC090C94A709A5
:1011A0000E94C90968F39923B1F3552391F3951B64
:1011B000550BBB27AA2762177307840738F09F5F78
:1011C0005F4F220F331F441FAA1FA9F335D00E2EE5
:1011D0003AF0E0E832D091505040E695001CCAF752
:1011E0002BD0FE2F29D0660F771F881FBB1F261715
:1011F00037074807AB07B0E809F0BB0B802DBF01EC
:10120000FF2793585F4F3AF09E3F510578F00C94BA
:10121000A1090C94EC095F3FE4F3983ED4F3869562
:1012200077956795B795F7959F5FC9F7880F911DDB
:101230009695879597F90895E1E0660F771F881FC7
:10124000BB1F621773078407BA0720F0621B730B7A
:10125000840BBA0BEE1F88F7E09508950E943509BC
:101260006894B1110C94EC0908950E94D10988F09A
:101270009F5798F0B92F9927B751B0F0E1F0660F5A
:10128000771F881F991F1AF0BA95C9F714C0B1309B
:1012900091F00E94EB09B1E008950C94EB09672FDF
:1012A000782F8827B85F39F0B93FCCF386957795CA
:1012B0006795B395D9F73EF49095809570956195B3
:1012C0007F4F8F4F9F4F0895E89409C097FB3EF4DE
:1012D00090958095709561957F4F8F4F9F4F992383
:1012E000A9F0F92F96E9BB279395F6958795779501
:1012F0006795B795F111F8CFFAF4BB0F11F460FFC1
:101300001BC06F5F7F4F8F4F9F4F16C0882311F018
:1013100096E911C0772321F09EE8872F762F05C02C
:10132000662371F096E8862F70E060E02AF09A95C7
:10133000660F771F881FDAF7880F9695879597F9BC
:10134000089597F99F6780E870E060E008959FEF47
:1013500080EC089500240A9416161706180609064C
:10136000089500240A94121613061406050608951B
:10137000092E0394000C11F4882352F0BB0F40F4A3
:10138000BF2B11F460FF04C06F5F7F4F8F4F9F4FE3
:10139000089557FD9058440F551F59F05F3F71F065
:1013A0004795880F97FB991F61F09F3F79F08795CC
:1013B0000895121613061406551FF2CF4695F1DF55
:1013C00008C0161617061806991FF1CF86957105E5
:1013D000610508940895E894BB2766277727CB0119
:1013E00097F9089597FB072E16F4009407D077FD20
:1013F00009D00E94060A07FC05D03EF4909581951D
:101400009F4F0895709561957F4F0895AA1BBB1B50
:1014100051E107C0AA1FBB1FA617B70710F0A61BF4
:10142000B70B881F991F5A95A9F780959095BC0115
:08143000CD010895F894FFCFEF
:00000001FF
