S01D00005573657220496E70757420436F6E74726F6C6C65722E73726563F4
S11300000C942A000C943C000C943C000C943C008E
S11300100C943C000C943C000C943C000C943C006C
S11300200C943C000C943C000C943C000C943C005C
S11300300C943C000C9450000C943C000C943C0038
S11300400C943C000C943C000C943C000C943C003C
S11300500C943C0011241FBECFE5D8E0DEBFCDBF19
S113006020E0A0E6B0E001C01D92A136B207E1F79E
S11300700E9494000C94EE000C94000087B38E60F0
S113008087BB89E683BF8FEF8CBF08958CBF08952B
S113009088B3826088BB089588B38D7F88BB089538
S11300A01F920F920FB60F9211242F933F934F93E9
S11300B05F936F937F938F939F93AF93BF93EF93CC
S11300C0FF938CB18093600080916000813019F4BB
S11300D00E94480018C080916000843019F40E9486
S11300E04C0011C080916000823029F48FEF90E0C1
S11300F00E94460008C080916000833021F484E6A9
S113010090E00E944600FF91EF91BF91AF919F91C3
S11301108F917F916F915F914F913F912F910F90AC
S11301200FBE0F901F9018950E943E0060E875E284
S113013080E090E00E949E007894FFCF21B322607B
S113014021BBDC01CB01880F991FAA1FBB1F880F9D
S1130150991FAA1FBB1F9C01AD01220F331F441F0F
S1130160551F220F331F441F551F60E074E284EFB4
S113017090E00E94CC00DA01C9010197A109B109FC
S1130180892F9A2FAB2FBB2780BD215029B988E92D
S11301908AB98EE080BD0895A1E21A2EAA1BBB1B6A
S11301A0FD010DC0AA1FBB1FEE1FFF1FA217B3073F
S11301B0E407F50720F0A21BB30BE40BF50B661F55
S11301C0771F881F991F1A9469F760957095809519
S11301D090959B01AC01BD01CF010895F894FFCF28
S9030000FC
